:020000040000FA
:10000000780200200D030000150300001703000014
:10001000190300001B0300001D0300000000000086
:100020000000000000000000000000001F030000AE
:10003000210300000000000023030000090E00005F
:1000400027030000290300002B0300002D030000FC
:100050002F030000310300003303000035030000CC
:1000600037030000390300003B0300003D0300009C
:100070003F0300004103000043030000450300006C
:1000800047030000490300008D0F00004D030000EE
:100090004F0300005103000053030000550300000C
:1000A00057030000590300005B0300005D030000DC
:1000B0005F03000061030000750600006503000097
:1000C00067030000690300006B0300006D0300007C
:1000D0006F0300007103000073030000750300004C
:1000E0007703000079030000000000007B0300009C
:1000F0007D0300007F0300008103000083030000F4
:100100008503000087030000890300008B030000C3
:1001100000000000000000008D0300008F030000BD
:100120009103000093030000950300009703000073
:10013000990300009B0300009D0300009F03000043
:1001400000000000000000000000000000000000AF
:10015000A1030000A3030000A5030000A703000003
:10016000000000000000000000000000000000008F
:10017000000000000000000000000000000000007F
:10018000000000000000000000000000000000006F
:10019000000000000000000000000000000000005F
:1001A000000000000000000000000000000000004F
:1001B000A9030000AB030000AD030000AF03000083
:1001C000B1030000B3030000B5030000B703000053
:1001D000B9030000BB030000BD030000BF03000023
:1001E000C1030000C3030000C503000000000000BD
:1001F00000000000C7030000C9030000CB0300009B
:10020000CD030000CF03000000000000000000004C
:10021000D1030000D3030000D5030000D703000082
:10022000D9030000DB030000DD030000DF03000052
:10023000E1030000E3030000E5030000E703000022
:10024000E9030000EB030000ED030000EF030000F2
:10025000F1030000F3030000F5030000F7030000C2
:10026000F9030000FB030000FD03000000F002F8AA
:1002700000F03CF80AA090E8000C82448344AAF104
:100280000107DA4501D100F031F8AFF2090EBAE802
:100290000F0013F0010F18BFFB1A43F001031847BA
:1002A000B00D0000D00D0000103A24BF78C878C10E
:1002B000FAD8520724BF30C830C144BF04680C606C
:1002C000704700000023002400250026103A28BFB4
:1002D00078C1FBD8520728BF30C148BF0B607047B8
:1002E0001FB500F09FFE1FBD10B510BD00F09BF8BC
:1002F0001146FFF7F5FF00F050FE00F0B9F803B427
:10030000FFF7F2FF03BC00F0C1F800003F48804750
:100310003F480047FEE7FEE7FEE7FEE7FEE7FEE7B1
:10032000FEE7FEE7FEE7FEE7FEE7FEE7FEE7FEE7A5
:10033000FEE7FEE7FEE7FEE7FEE7FEE7FEE7FEE795
:10034000FEE7FEE7FEE7FEE7FEE7FEE7FEE7FEE785
:10035000FEE7FEE7FEE7FEE7FEE7FEE7FEE7FEE775
:10036000FEE7FEE7FEE7FEE7FEE7FEE7FEE7FEE765
:10037000FEE7FEE7FEE7FEE7FEE7FEE7FEE7FEE755
:10038000FEE7FEE7FEE7FEE7FEE7FEE7FEE7FEE745
:10039000FEE7FEE7FEE7FEE7FEE7FEE7FEE7FEE735
:1003A000FEE7FEE7FEE7FEE7FEE7FEE7FEE7FEE725
:1003B000FEE7FEE7FEE7FEE7FEE7FEE7FEE7FEE715
:1003C000FEE7FEE7FEE7FEE7FEE7FEE7FEE7FEE705
:1003D000FEE7FEE7FEE7FEE7FEE7FEE7FEE7FEE7F5
:1003E000FEE7FEE7FEE7FEE7FEE7FEE7FEE7FEE7E5
:1003F000FEE7FEE7FEE7FEE7FEE7FEE7FEE70000BA
:1004000004480549034A054B70470000210E0000CF
:100410006D020000780000207802002078000020A3
:10042000704770477047754600F02CF8AE460500DF
:100430006946534620F00700854618B020B5FFF7FF
:10044000DFFFBDE820404FF000064FF000074FF0FF
:1004500000084FF0000B21F00701AC46ACE8C009E2
:10046000ACE8C009ACE8C009ACE8C0098D467047EB
:1004700010B50446AFF300802046BDE81040FFF7FA
:100480003EBF0000004870471400002001491820BA
:10049000ABBEFEE726000200704700002DED028B88
:1004A000F0EE408AB0EE608A0748C0ED008A074847
:1004B00080ED008A06E0412000F0FEFC9FED040A7A
:1004C00000F076FDF7E700000C000020100000208F
:1004D000CDCCCC3D00B589B000F03EF8052000F051
:1004E000BFF81A4800681A49084318490860081DEF
:1004F000006840F00100091D0860164903C9CDE9F4
:1005000007011449083103C9CDE90501114910312A
:1005100003C9CDE903010F49183103C9CDE9010130
:10052000DDE9070100F03AF9DDE9030100F036F9F1
:10053000DDE9010100F032F9DDE9050100F02EF9F5
:1005400000F046F800F0C6FC09B000BD205502409E
:100550004B434F4C301000001748006E40F0100025
:10056000154908660846006E20F020000866084617
:10057000006E20F4006008660846006E20F400500B
:1005800008660846006E40F4800008660846006E63
:1005900020F4000008660846006E20F080700866AF
:1005A0000846006E40F0007008660846006E20F0B5
:1005B000806008667047000000E00F404FF0E020C8
:1005C000006920F002004FF0E02108617047000050
:1005D0001C48006840F080404FF0E021C1F8000165
:1005E0001948006840F00100174908600846006893
:1005F00040F01000086014480C38006820F001003A
:1006000011490C3908600846006820F010000860A5
:10061000081D006820F00100091D086008460068F8
:1006200020F01000086008480C30006840F001001D
:1006300005490C3108600846006840F01000086069
:100640007047000000E100E0105402404FF0E0204D
:10065000006940F002004FF0E0210861704700009F
:1006600003490968012282401143014A1160704721
:1006700008E60F401F48006800F00100D0B11E4896
:1006800090ED000AF7EE000A30EE200A80ED000A35
:100690001A4890ED000AF7EE000A30EE600A80ED8D
:1006A000000A1448001D006840F001001149091DAE
:1006B00008601EE00F48006800F01000C8B10E4846
:1006C00090ED000AF7EE000A30EE600A80ED000AB5
:1006D0000A4890ED000AF7EE000A30EE200A80ED9D
:1006E000000A0448001D006840F010000149091D7F
:1006F00008607047185402400C00002010000020D1
:1007000070B50346FF20062B3CD2DFE803F0030E52
:100710001720293200EA020528464C1C022606FA58
:1007200004F404F1402425602CE000EA0204204691
:100730004D1C0226AE40144D745123E000EA020421
:1007400020464D1C0226AE40104D74511AE000EABE
:10075000020420464D1C0226AE400D4D745111E09E
:1007600000EA020420464D1C0226AE40094D745199
:1007700008E000EA020420464D1C0226AE40064D69
:10078000745100BF00BF70BD0050004000600040C9
:1007900000700040004002400050024003B59DF848
:1007A000020006287AD2DFE800F00386FDFCFBFA9F
:1007B000FD4800689DF80120012191400843FA4955
:1007C00008609DF80000FF2809D1F84800689DF8EE
:1007D0000120012191400843F449086008E0F348F2
:1007E00000689DF80120012191408843EF4908608D
:1007F000BDF80400B0F5A06F0BD1EB481C380068C1
:100800009DF80120012191400843E7491C39086007
:1008100021E0BDF8040040F2045188420BD1E248C7
:10082000183800689DF80120012191400843DE49F5
:10083000183908600FE0BDF80400B0F5A16F0AD1C7
:10084000D948143800689DF80120012191400843DF
:10085000D54914390860BDF80600B0F5A26F0BD178
:10086000D1480C3800689DF80120012191400843CF
:10087000CD490C3908601DE0BDF8060040F2145166
:1008800088420CD1C848083800689DF80120012131
:1008900091400843C449083908600BE023E24FF057
:1008A000402000689DF801200121914008434FF04D
:1008B0004021086098E2BE4800689DF801200121AF
:1008C00091400843BA4908609DF80000FF2809D10B
:1008D000B84800689DF80120012191400843B549BE
:1008E000086008E0B34800689DF8012001219140AC
:1008F0008843B0490860BDF80400B0F5A06F0BD183
:10090000AB481C3800689DF8012001219140084344
:10091000A7491C39086021E0BDF8040040F20451E9
:1009200088420BD1A248183800689DF801200121A7
:10093000914008439E49183908600FE0BDF8040053
:10094000B0F5A16F0AD19A48143800689DF80120CB
:10095000012191400843964914390860BDF806000A
:10096000B0F5A26F09D1944800689DF801200121DB
:1009700091400843904908601EE0BDF8060040F22F
:10098000145188420FD18A48083800689DF8012028
:100990000121914008438649083908600CE0A3E131
:1009A00022E18AE009E0854800689DF801200121E4
:1009B000914008438149086016E2814800689DF82B
:1009C00001200121914008437D4908609DF8000005
:1009D000FF2809D17B4800689DF801200121914042
:1009E00008437849086008E0764800689DF80120CF
:1009F00001219140884373490860BDF80400B0F5B7
:100A0000A06F0BD16E481C3800689DF801200121B1
:100A1000914008436A491C39086021E0BDF8040090
:100A200040F2045188420BD16548183800689DF89F
:100A300001200121914008436149183908600FE005
:100A4000BDF80400B0F5A16F0AD15D481438006804
:100A50009DF801200121914008435949143908604B
:100A6000BDF80600B0F5A26F0BD155480C380068F0
:100A70009DF8012001219140084351490C3908603B
:100A80001AE0BDF8060040F2145188420BD14C48E0
:100A9000083800689DF80120012191400843484929
:100AA0000839086008E0484800689DF801200121E5
:100AB000914008434449086096E1444800689DF825
:100AC0000120012191400843404908609DF8000041
:100AD000FF2809D13E4800689DF80120012191407E
:100AE00008433B49086008E0394800689DF8012048
:100AF00001219140884336490860BDF80400B0F5F3
:100B0000A06F0BD131481C3800689DF801200121ED
:100B1000914008432D491C39086021E0BDF80400CC
:100B200040F2045188420BD12848183800689DF8DB
:100B300001200121914008432449183908600FE041
:100B4000BDF80400B0F5A16F0AD120481438006840
:100B50009DF801200121914008431C491439086087
:100B6000BDF80600B0F5A26F0BD118480C3800682C
:100B70009DF8012001219140084314490C39086077
:100B800031E0BDF8060040F21451884222D10F48EE
:100B9000083800689DF801200121914008430B4965
:100BA000083908601FE000001C4500400044004078
:100BB0001C5500400054004010050040005000400B
:100BC0001C65004000640040006000401C7500404F
:100BD00000740040854800689DF801200121914083
:100BE000084382490860FFE0814800689DF80120C1
:100BF0000121914008437E4908609DF80000FF28CC
:100C000009D17C4800689DF80120012191400843EA
:100C10007849086008E0774800689DF801200121C4
:100C20009140884373490860BDF80400B0F5A06F97
:100C30000BD16F481C3800689DF8012001219140BC
:100C400008436B491C39086021E0BDF8040040F2FC
:100C5000045188420BD16648183800689DF801207D
:100C60000121914008436249183908600FE0BDF83E
:100C70000400B0F5A16F0AD15D48143800689DF8F2
:100C80000120012191400843594914390860BDF8F9
:100C90000600B0F5A26F0BD155480C3800689DF8DE
:100CA000012001219140084351490C3908601AE0A4
:100CB000BDF8060040F2145188420BD14C48083868
:100CC00000689DF8012001219140084348490839F6
:100CD000086008E0484800689DF801200121914023
:100CE0000843454908607FE0444800689DF80120BA
:100CF000012191400843414908609DF80000FF2808
:100D000009D13F4800689DF8012001219140084326
:100D10003B49086008E03A4800689DF8012001213D
:100D20009140884336490860BDF80400B0F5A06FD3
:100D30000BD132481C3800689DF8012001219140F8
:100D400008432E491C39086021E0BDF8040040F238
:100D5000045188420BD12948183800689DF80120B9
:100D60000121914008432549183908600FE0BDF87A
:100D70000400B0F5A16F0AD12048143800689DF82E
:100D800001200121914008431C4914390860BDF835
:100D90000600B0F5A26F0BD118480C3800689DF81A
:100DA000012001219140084314490C3908601AE0E0
:100DB000BDF8060040F2145188420BD10F480838A4
:100DC00000689DF801200121914008430B49083932
:100DD000086008E00B4800689DF80120012191405F
:100DE00008430849086000BF00BF0CBD0070004008
:100DF0001C45024000440240004002401C55024095
:100E00000054024000500240044890ED000AF7EE02
:100E1000000A30EE200A80ED000A7047080000202A
:100E20001B49096841F47001194A116019491A4AAD
:100E300011671A4911661A4911661A49116700208B
:100E400000E0401CB0F57A7FFBD31749124A1166C7
:100E500016491167002000E0401CB0F57A7FFBD3F3
:100E600013490D4A116600BF0B49096D01F040019D
:100E70004029F9D10F49084A11664FF0C071116736
:100E8000002000E0401C42F210718842FAD3704703
:100E900088ED00E01028800700E00F40D13A8E076F
:100EA000422D9E0100288001420D9E010008800114
:100EB000420DDE014205DE0100BF0549896901F0EE
:100EC00020010029F9D14621014A11607047000034
:100ED00000C0004010B52A48006840F001002849D1
:100EE00008600020FFF7BCFB2648006B20F00100E3
:100EF00024490863022048620B2088620846C06AC1
:100F000040F02000C8620846C06A40F04000C86255
:100F10000846C06A40F01000C8620846C06A20F067
:100F20000800C8620846006B40F0010008630846EC
:100F3000006B40F4807008630846006B40F400705A
:100F400008631148006820F001000F490860084656
:100F5000006820F0020008600846006820F0FF00EA
:100F60001130086008480C38006840F0010006495C
:100F70000C3908600846006840F00200086010BDA7
:100F800018E60F4000C000402845004010B5FF2281
:100F900001210520FFF7B4FB10BDFFF79BFAF0EE2F
:100FA000000AB0EE000AFFF779FA00BFFEE7000082
:100FB00010B52DED028BB0EE408AB2EE040A28EE99
:100FC000000AB0EE408A4FF0E020006940F00100D6
:100FD0004FF0E0210861FFF739FB0F484FF0E021A7
:100FE000486100BF0D4890ED000AB4EEC80AF1EE6A
:100FF00010FAF7D39FED0A0A80ED000A4FF0E020C7
:10100000006920F001004FF0E0210861FFF7D6FAF7
:10101000BDEC028B10BD00007F1A06000800002006
:10102000000000004FF04070E1EE100A7047000031
:10103000FF02050008050000FF010500080500008B
:10104000000005000805100500040500080510054E
:10105000701000000000002014000000A802000032
:10106000841000001400002064020000C40200008C
:101070000000000000000000000000000000000070
:04108000000000006C
:040000050000030DE7
:00000001FF
