:020000040000FA
:1000000070020020F1020000F9020000FB02000073
:10001000FD020000FF0200000103000000000000DC
:1000200000000000000000000000000003030000CA
:10003000050300000000000007030000750F00002A
:100040000B0300000D0300000F030000110300006C
:10005000130300001503000017030000190300003C
:100060001B0300001D0300001F030000210300000C
:1000700023030000250300002703000029030000DC
:100080002B0300002D0300002F03000031030000AC
:10009000330300003503000037030000390300007C
:1000A0003B0300003D0300003F030000410300004C
:1000B000430300004503000031060000490300002F
:1000C0004B0300004D0300004F03000051030000EC
:1000D00053030000550300005703000059030000BC
:1000E0005B0300005D030000000000005F030000F0
:1000F0006103000063030000650300006703000064
:10010000690300006B0300006D0300006F03000033
:1001100000000000000000007103000073030000F5
:100120007503000077030000790300007B030000E3
:100130007D0300007F0300008103000083030000B3
:1001400000000000000000000000000000000000AF
:100150008503000087030000890300008B03000073
:10016000000000000000000000000000000000008F
:10017000000000000000000000000000000000007F
:10018000000000000000000000000000000000006F
:10019000000000000000000000000000000000005F
:1001A000000000000000000000000000000000004F
:1001B0008D0300008F0300009103000093030000F3
:1001C0009503000097030000990300009B030000C3
:1001D0009D0300009F030000A1030000A303000093
:1001E000A5030000A7030000A90300000000000011
:1001F00000000000AB030000AD030000AF030000EF
:10020000B1030000B3030000000000000000000084
:10021000B5030000B7030000B9030000BB030000F2
:10022000BD030000BF030000C1030000C3030000C2
:10023000C5030000C7030000C9030000CB03000092
:10024000CD030000CF030000D1030000D303000062
:10025000D5030000D7030000D9030000DB03000032
:10026000DD030000DF030000E103000000F002F8FE
:1002700000F02EF80AA090E8000C82448344AAF112
:100280000107DA4501D100F023F8AFF2090EBAE810
:100290000F0013F0010F18BFFB1A43F001031847BA
:1002A000B40E0000C40E0000002300240025002628
:1002B000103A28BF78C1FBD8520728BF30C148BFC9
:1002C0000B6070471FB500F038FF1FBD10B510BDA3
:1002D00000F09BF81146FFF7F5FF00F0DFFE00F09D
:1002E000B9F803B4FFF7F2FF03BC00F0C1F8000057
:1002F0003F4880473F480047FEE7FEE7FEE7FEE74E
:10030000FEE7FEE7FEE7FEE7FEE7FEE7FEE7FEE7C5
:10031000FEE7FEE7FEE7FEE7FEE7FEE7FEE7FEE7B5
:10032000FEE7FEE7FEE7FEE7FEE7FEE7FEE7FEE7A5
:10033000FEE7FEE7FEE7FEE7FEE7FEE7FEE7FEE795
:10034000FEE7FEE7FEE7FEE7FEE7FEE7FEE7FEE785
:10035000FEE7FEE7FEE7FEE7FEE7FEE7FEE7FEE775
:10036000FEE7FEE7FEE7FEE7FEE7FEE7FEE7FEE765
:10037000FEE7FEE7FEE7FEE7FEE7FEE7FEE7FEE755
:10038000FEE7FEE7FEE7FEE7FEE7FEE7FEE7FEE745
:10039000FEE7FEE7FEE7FEE7FEE7FEE7FEE7FEE735
:1003A000FEE7FEE7FEE7FEE7FEE7FEE7FEE7FEE725
:1003B000FEE7FEE7FEE7FEE7FEE7FEE7FEE7FEE715
:1003C000FEE7FEE7FEE7FEE7FEE7FEE7FEE7FEE705
:1003D000FEE7FEE7FEE7FEE7FEE7FEE7FEE7FEE7F5
:1003E000FEE7000004480549034A054B704700003A
:1003F000910F00006D0200007000002070020020CC
:1004000070000020704770477047754600F02CF868
:10041000AE4605006946534620F00700854618B0F1
:1004200020B5FFF7DFFFBDE820404FF000064FF09A
:1004300000074FF000084FF0000BAC46ACE8C009D5
:10044000ACE8C009ACE8C009ACE8C00921F007017C
:100450008D46704710B50446AFF300802046BDE8D6
:100460001040FFF73EBF000000487047000000202A
:1004700001491820ABBEFEE72600020070470000CD
:1004800080B584B08DED030ACDED020A039840F2E9
:100490006401C2F200010860029840F26001C2F2F9
:1004A00000010860FFE70520009001210191FF2273
:1004B00000F014F940F26400C2F2000090ED000A6E
:1004C00000F0FAFD00980199002200F007F940F2CF
:1004D0006000C2F2000090ED000A00F0EDFDE2E7DE
:1004E00080B588B0052000F091F845F22051C4F2A3
:1004F0000201086844F24B32C4F64F4210430860D0
:1005000045F22451C4F20201086840F0010008607D
:100510004FF4A160079040F2FF21C0F2050106915F
:10052000059040F2FF10C0F20500049040F2085020
:10053000C0F2105003904FF4A0210291019040F2BC
:100540000040C0F2050000900698079900F050F9AD
:100550000298039900F04CF90098019900F048F9CD
:100560000498059900F044F900F00CF808B080BD3B
:100570004EF21001CEF20001086820F0020008607F
:10058000704700004EF20011CEF20001086840F002
:100590008040086045F21041C4F20201086840F052
:1005A00001000860086840F01000086045F204414E
:1005B000C4F20201086820F001000860086820F019
:1005C0001000086045F20841C4F20201086820F0FA
:1005D00001000860086820F01000086045F21C4126
:1005E000C4F20201086840F001000860086840F0A9
:1005F00010000860704700004EF21001CEF20001BA
:10060000086840F0020008607047000081B08DF873
:1006100003009DF80310012000FA01F24EF2086178
:10062000C4F20F0108681043086001B07047000071
:1006300045F21840C4F202000068C00708B3FFE7A3
:1006400040F26400C2F2000090ED000AB7EE001A1A
:1006500030EE010A80ED000A40F26000C2F20000B4
:1006600090ED000ABFEE001A30EE010A80ED000A9C
:1006700045F21C41C4F20201086840F00100086024
:100680002AE045F21840C4F202000068C0060028C3
:1006900021D5FFE740F26400C2F2000090ED000AAD
:1006A000BFEE001A30EE010A80ED000A40F2600051
:1006B000C2F2000090ED000AB7EE001A30EE010A17
:1006C00080ED000A45F21C41C4F20201086840F0C6
:1006D00010000860FFE7FFE77047000082B08DF868
:1006E00007008DF806108DF80520FF208DF8040016
:1006F0009DF8070001460091052800F276800099D8
:10070000DFE801F00314273A4D609DF805109DF8CD
:10071000040008408DF804009DF806104A1C0221D0
:1007200001FA02F24FF0402188505EE09DF805107A
:100730009DF8040008408DF804009DF806104A1C3E
:10074000022101FA02F245F20001C4F200018850D0
:100750004BE09DF805109DF8040008408DF804005A
:100760009DF806104A1C022101FA02F246F200012D
:10077000C4F20001885038E09DF805109DF804008F
:1007800008408DF804009DF806104A1C022101FA69
:1007900002F247F20001C4F20001885025E09DF802
:1007A00005109DF8040008408DF804009DF806101F
:1007B0004A1C022101FA02F244F20001C4F20201D1
:1007C000885012E09DF805109DF8040008408DF84F
:1007D00004009DF806104A1C022101FA02F245F2BB
:1007E0000001C4F202018850FFE702B07047000028
:1007F00083B0029101909DF8060001460091052802
:1008000000F2B5830099DFE811F00600A1003E0177
:10081000DB01780215039DF80510012000FA01F2B2
:1008200044F21C51C4F200010868104308609DF8AE
:100830000400FF280DD1FFE79DF80510012000FA04
:1008400001F244F20041C4F200010868104308605C
:100850000CE09DF80510012000FA01F244F200417D
:10086000C4F20001086890430860FFE7BDF8080083
:10087000B0F5A06F0DD1FFE79DF80510012000FA3B
:1008800001F244F20051C4F200010868104308600C
:1008900028E0BDF8080040F2045188420DD1FFE77E
:1008A0009DF80510012000FA01F244F20451C4F24F
:1008B000000108681043086013E0BDF80800B0F5B7
:1008C000A16F0DD1FFE79DF80510012000FA01F29C
:1008D00044F20851C4F20001086810430860FFE7C1
:1008E000FFE7FFE7BDF80A00B0F5A26F0DD1FFE703
:1008F0009DF80510012000FA01F244F21051C4F2F3
:1009000000010868104308601FE0BDF80A0040F2CB
:10091000145188420DD1FFE79DF80510012000FA1F
:1009200001F244F21451C4F2000108681043086057
:100930000AE09DF80510012000FA01F24FF0402175
:10094000086810430860FFE7FFE710E39DF8051013
:10095000012000FA01F245F21C51C4F200010868BE
:10096000104308609DF80400FF280DD1FFE79DF8B3
:100970000510012000FA01F245F20041C4F2000125
:100980000868104308600CE09DF80510012000FA8B
:1009900001F245F20041C4F200010868904308608A
:1009A000FFE7BDF80800B0F5A06F0DD1FFE79DF897
:1009B0000510012000FA01F245F20051C4F20001D5
:1009C00008681043086028E0BDF8080040F20451B0
:1009D00088420DD1FFE79DF80510012000FA01F2D1
:1009E00045F20451C4F2000108681043086013E0A6
:1009F000BDF80800B0F5A16F0DD1FFE79DF8051017
:100A0000012000FA01F245F20851C4F20001086821
:100A100010430860FFE7FFE7FFE7BDF80A00B0F505
:100A2000A26F0DD1FFE79DF80510012000FA01F239
:100A300040F21051C4F2000108681043086021E040
:100A4000BDF80A0040F2145188420DD1FFE79DF82D
:100A50000510012000FA01F245F21451C4F2000120
:100A60000868104308600CE09DF80510012000FAAA
:100A700001F245F20001C4F2000108681043086069
:100A8000FFE7FFE773E29DF80510012000FA01F28D
:100A900046F21C51C4F200010868104308609DF83A
:100AA0000400FF280DD1FFE79DF80510012000FA92
:100AB00001F246F20041C4F20001086810430860E8
:100AC0000CE09DF80510012000FA01F246F2004109
:100AD000C4F20001086890430860FFE7BDF8080011
:100AE000B0F5A06F0DD1FFE79DF80510012000FAC9
:100AF00001F246F20051C4F2000108681043086098
:100B000028E0BDF8080040F2045188420DD1FFE70B
:100B10009DF80510012000FA01F246F20451C4F2DA
:100B2000000108681043086013E0BDF80800B0F544
:100B3000A16F0DD1FFE79DF80510012000FA01F229
:100B400046F20851C4F20001086810430860FFE74C
:100B5000FFE7FFE7BDF80A00B0F5A26F0DD1FFE790
:100B60009DF80510012000FA01F246F21051C4F27E
:100B7000000108681043086021E0BDF80A0040F257
:100B8000145188420DD1FFE79DF80510012000FAAD
:100B900001F246F21451C4F20001086810430860E3
:100BA0000CE09DF80510012000FA01F246F2000168
:100BB000C4F20001086810430860FFE7FFE7D6E1D0
:100BC0009DF80510012000FA01F247F21C51C4F211
:100BD00000010868104308609DF80400FF280DD14B
:100BE000FFE79DF80510012000FA01F247F20041ED
:100BF000C4F200010868104308600CE09DF805107D
:100C0000012000FA01F247F20041C4F20001086835
:100C100090430860FFE7BDF80800B0F5A06F0DD164
:100C2000FFE79DF80510012000FA01F247F200519C
:100C3000C4F2000108681043086028E0BDF808000D
:100C400040F2045188420DD1FFE79DF805100120C4
:100C500000FA01F247F20451C4F20001086810439F
:100C6000086013E0BDF80800B0F5A16F0DD1FFE7F3
:100C70009DF80510012000FA01F247F20851C4F274
:100C80000001086810430860FFE7FFE7FFE7BDF8D1
:100C90000A00B0F5A26F0DD1FFE79DF80510012005
:100CA00000FA01F247F21051C4F200010868104343
:100CB000086021E0BDF80A0040F2145188420DD1CD
:100CC000FFE79DF80510012000FA01F247F21451E8
:100CD000C4F200010868104308600CE09DF805109C
:100CE000012000FA01F247F20001C4F20001086895
:100CF00010430860FFE7FFE739E19DF80510012088
:100D000000FA01F244F21C51C4F2020108681043D7
:100D100008609DF80400FF280DD1FFE79DF805103D
:100D2000012000FA01F244F20041C4F20201086815
:100D3000104308600CE09DF80510012000FA01F254
:100D400044F20041C4F20201086890430860FFE7E2
:100D5000BDF80800B0F5A06F0DD1FFE79DF80510B4
:100D6000012000FA01F244F20051C4F202010868C5
:100D70001043086028E0BDF8080040F204518842A2
:100D80000DD1FFE79DF80510012000FA01F244F2B1
:100D90000451C4F2020108681043086013E0BDF872
:100DA0000800B0F5A16F0DD1FFE79DF805100120F7
:100DB00000FA01F244F20851C4F20201086810433B
:100DC0000860FFE7FFE7FFE7BDF80A00B0F5A26F94
:100DD0000DD1FFE79DF80510012000FA01F244F261
:100DE0001051C4F2020108681043086021E0BDF808
:100DF0000A0040F2145188420DD1FFE79DF805101A
:100E0000012000FA01F244F21451C4F20201086810
:100E1000104308600CE09DF80510012000FA01F273
:100E200044F20001C4F20201086810430860FFE7C1
:100E3000FFE79CE09DF80510012000FA01F245F261
:100E40001C51C4F202010868104308609DF80400B8
:100E5000FF280DD1FFE79DF80510012000FA01F2EF
:100E600045F20041C4F202010868104308600CE03A
:100E70009DF80510012000FA01F245F20041C4F28C
:100E80000201086890430860FFE7BDF80800B0F56C
:100E9000A06F0DD1FFE79DF80510012000FA01F2C7
:100EA00045F20051C4F2020108681043086028E0CE
:100EB000BDF8080040F2045188420DD1FFE79DF8CB
:100EC0000510012000FA01F245F20451C4F20201BA
:100ED00008681043086013E0BDF80800B0F5A16F82
:100EE0000DD1FFE79DF80510012000FA01F245F24F
:100EF0000851C4F20201086810430860FFE7FFE7E9
:100F0000FFE7BDF80A00B0F5A26F0DD1FFE79DF82D
:100F10000510012000FA01F245F21051C4F202015D
:100F200008681043086021E0BDF80A0040F214513F
:100F300088420DD1FFE79DF80510012000FA01F26B
:100F400045F21451C4F202010868104308600CE035
:100F50009DF80510012000FA01F245F20001C4F2EB
:100F60000201086810430860FFE7FFE7FFE703B0EE
:100F70007047000040F26800C2F2000090ED000AE5
:100F8000B7EE001A30EE010A80ED000A704700004B
:100F900081B04EF68851CEF20001086840F470002E
:100FA00008604EF27001C4F20F0142F61000C0F268
:100FB000807008604EF26002C4F20F0243F6D12046
:100FC000C0F28E70106042F64250C0F29E10106067
:100FD00042F60000C0F28010086000200090FFE799
:100FE0000098C0087C2805D8FFE7FFE7009801308B
:100FF0000090F5E74EF26001C4F20F0140F6425056
:10100000C0F29E1008604EF27001C4F20F0140F66B
:101010000000C0F28010086000200090FFE70098F8
:10102000C0087C2805D8FFE7FFE700980130009052
:10103000F5E74EF26001C4F20F0140F64250C0F2F3
:10104000DE100860FFE74EF25000C4F20F000068A7
:1010500000F04000402801D0FFE7F4E74EF26001C5
:10106000C4F20F0140F24250C0F2DE1008604EF2AE
:101070007001C4F20F014FF0C070086000200090B2
:10108000FFE7009842F20F71884205D8FFE7FFE7BB
:10109000009801300090F4E701B0704780B582B04D
:1010A00000200190FFF71CFAF0EE000AB0EE600A93
:1010B000FFF7E6F9FFE7FEE780B582B08DED010AA4
:1010C0009DED010AB2EE041A20EE010A8DED010A2F
:1010D0004EF21001CEF20001086840F001000860F5
:1010E000FFF78AFA4EF21401CEF2000141F67F209A
:1010F000C0F206000860FFE740F26800C2F200009C
:1011000090ED000A9DED011AB4EE410AF1EE10FADD
:1011100001DAFFE7F0E740F26801C2F200010020C7
:1011200008604EF21001CEF20001086820F00100C4
:101130000860FFF71DFA02B080BDF1EE100A4FF60D
:10114000FF71C0F2C03120EA010040F04070E1EED2
:10115000100A7047641100000000002070020000B7
:04116000A8020000E1
:04000005000002F104
:00000001FF
